:03000000021EB22B
:0C1EB200787FE4F6D8FD758121021EF94E
:101B4000205449504F204445534355454E544F204F
:101B5000005F5449454D504F205F504F5243454E12
:101B6000540056414C4F52204445534355454E5422
:101B70004F3A002020202020203030302025202007
:101B8000202020002020303030206D696E75746F69
:101B900073202020002056414C4F5220494E564180
:101BA0004C49444F2000444947495445204445533B
:101BB0004355454E544F00434F4449474F3A202028
:101BC0002020202020202000202050524F4752412A
:101BD0004D4143494F4E202000204C49424552453B
:101BE0003A2053454C454354200056414C4F522017
:101BF0003A2020202020202020200020202A2A2ACD
:0C1C00002044454D4F202A2A2A202000B5
:101640005101684552524F52204445204D454D4F5F
:101650005249410041018B004100C00041005C0043
:1016600041005B0051017A202020436865636B5084
:101670006F696E7420202000510013204669726D3E
:1016800077617265202076302E3320005100865419
:1016900041524A45544120494E56414C494441002B
:1016A0005100984E4F20504F53454520494E4752C8
:1016B00045534F005100734552524F522049442028
:1016C0005041524B494E47005100A9446573637520
:1016D000656E746F203A202020202000510039418F
:1016E000434552515545204445204E5545564F00DF
:1016F00051004A2020204C41205441524A45544137
:1017000020202000510026594120504F53454520AC
:101710005041474F2E2E2E00510002444553435551
:10172000454E544F2048415354413A0051005E4EBB
:101730004F207265717569657265205061676F0031
:1017400051018D4143455251554553452041204358
:10175000414A41004100250A41015B02420000006C
:0917600001C107C101C104C1026D
:09281700122820122820122820AA
:012820002295
:1027C600E4FFFE1228200FBF00010EEF642D4E70AD
:0127D600F210
:0127D70022DF
:1027D800E4FFFE1228200FBF00010EEF644B4E707D
:0127E800F2FE
:0127E90022CD
:0827820075803FC2911228206E
:0F278A00C2911227C6D2911227C6C2900227C64B
:0B271D00900243E0FF900242E02FFF1B
:0F272800AD0712278AAF058F801227C6C29122F4
:10232B0012278A75803FC2911227C612278A12275D
:10233B0082122782758038C29112278A758008C253
:10234B009112278A758001C29112278A758003C268
:0A235B009112278A75800FC29122AB
:10236500900242F0FF122728900245E0FF12237EDB
:09237500A3E0FF12237EA3E0FFA8
:10237E00C291122817D291122817122820D2901229
:0A238E0028178F8012281AC291222E
:0E27FC00E4FFFE0FBF00010EEF64054E70F506
:01280A0022AB
:08283400D2B6122820C2B62220
:10000300E4FDFCEFA2E713FF30D704D2B58002C2B0
:0F001300B51228340DBD00010CED64084C70E4EB
:0100220022BB
:08242E00122198900084E0FFE8
:02243600AD07F0
:10243800ED7E0054F0FFEEC4F854F0C868FEEFC417
:10244800540F484430FF12237EAF057E00EF540F2F
:062458004430FF02237E68
:02219800AD0791
:10219A00D2B41227FCAF05120003E4FDFC30B517D8
:1021AA00900084E04480F0D3ED9406EC648094803F
:1021BA005005E0FFC313F020B517900084E0547F68
:1021CA00F0D3ED9406EC648094805005E0FFC313CD
:1021DA00F01228340DBD00010CED64084C70BEC22B
:0621EA00B4900084E0FF48
:0121F00022CC
:10276A00AC07AB05D2B41227FCAF04120003AF03C7
:08277A00AC07120003C2B422F7
:1027EA00E4FFFE1228200FBF00010EBE03F5BF66EC
:0127FA00F2EC
:0127FB0022BB
:10213D00122821122737122153AF021227371221ED
:06214D0053AF0312273717
:10215300D200D2A7D2A6E4FDFC20A606C200C2A7E5
:10216300800B0DBD00010CBC04EFBD4CEC30002412
:102173007F96122728E4FCFD74682DF582E4340170
:10218300F583E0FF600E900024F012237E0DBD0066
:04219300010C80E4D7
:012197002225
:03264A001227371D
:10264D00D2A7D2A6D200E4FFFE20A605C200C2A7E3
:0C265D00220FBF00010EBE02F0BF8AED8C
:01266900224E
:06283C00D2A700C2A72292
:10273700E4FEEF25E0FF30D704D2A68002C2A6D27E
:09274700A712283C0EEEB408E9CB
:012750002266
:0A282100D2A6D2A700C2A6C2A722C9
:09282B00C2A7C2A6D2A7D2A622C0
:1022EE00E4FDC2A730A613900158E04401F0EDD3EF
:1022FE0094065006E025E0F0D2A720A613900158D0
:10230E00E054FEF0EDD394065006E025E0F0D2A79F
:0C231E000DEDB408CDC2A7900158E0FFFF
:01232A002290
:0A24BC00E09002B1F00BE4FD7FA8F0
:1024C600AA05C2A7C2A612213D9002B1E0FF1227BB
:0F24D6003712215312282B1227EAD2A7D2A6229F
:02239800AA0594
:10239A00C2A7C2A612282012282012213DE4FBFA65
:1023AA009002BDE0FF1227371221530BBB00010A2E
:1023BA00EB64804A70EA12282B1227EAD2A7D2A627
:0123CA0022F0
:101FC6007F8C1227287B50E4FD7FA8121FF2122374
:101FD6007E0BE4FD7FA8121FF212237E0BE4FD7F29
:0C1FE600A8121FF212237E0BE4FD7FA85E
:101FF200AC07C2A7C2A612282112264AAF05122692
:102002004AAF0312273712264D122821EC04FF1281
:102012002737122153C2A71222EE12282BD2A7D29F
:07202200A6900158E0FF2227
:0B280B007F0A9000C274FFF0A3DFFC06
:01281600229F
:0E27B000E0FF1227BEA3E0FF1227BEA3E0FF4A
:0827BE002002FD8F99D20222D6
:0300230002176A57
:0B176A00C0E0C083C082C0D075D00872
:10177500209803021874AE99C2989000C0E01460D6
:101785004F1460721470030218211470030218506C
:101795002404600302186F90005BE4F012280B909C
:1017A50000C1E4F0C207EE64026003021874900001
:1017B5005BE0FF04F074C22FF582E43400F583EE9C
:1017C500F0900025740AF09000C07401F0021874BE
:1017D500EE702190005BE0FF04F074C22FF582E407
:1017E5003400F583EEF0900025740AF09000C07483
:1017F50002F0807B80749000C1EEF090005BE0FF0A
:1018050004F074C22FF582E43400F583EEF0900005
:10181500C07403F0900025740AF0805390005BE0DB
:10182500FF04F074C22FF582E43400F583EEF090E6
:101835000025740AF09000C1E0600214F09000C128
:10184500E0702C9000C07404F08024AF0E90005B13
:10185500E0FE04F074C22EF582E43400F583EFF067
:101865009000257403F0D20780059000C0E4F030A5
:061875009904C299C202B1
:09187B00D0D0D082D083D0E0323D
:02270100AE0721
:10270300E4FDEDC39E501274262DF582E43401F5E9
:0927130083E0FF1227BE0D80E9EE
:01271C00229A
:06279900AE07AF01AD0622
:10279F00EF540FC454F0FFED540F4FFF90018CF026
:0127AF002207
:10188400E49002B8F0A3F07B52FD7FA8121FF2A9E6
:1018940007121FED122799AA079001C4EAF07B50A2
:1018A400121FEEA907121FED122799AA079001C56E
:1018B400EAF07B54121FEE9002B4EFF0121FED9089
:1018C40002B3EFF0121FED9002B2EFF09002B6E413
:1018D400F0A304F0D292E4FB74B22BF582E4340258
:1018E400F583E0FF1227BE74B22BF582E43402F5CF
:1018F40083E0540FFF3395E0FE9002B6E0FCA3E0D2
:10190400FD1215509002B9E02FF09002B8E03EF0BD
:101914009002B6E0FEA3E0FF7C007D0A1215509011
:1019240002B6EEF0A3EFF00BEBB403ACC29290025C
:10193400B8E0FEA3E0FF900037EEF0A3EFF0FA90DA
:1019440001C3F09002B8A3E07804CEA2E713CE134B
:10195400D8F8FF9002B8EEF0A3EFF054F0FA90013B
:10196400C7E0540FF07B57121FEEEFB43006EA5471
:0E1974007FFA8004EA4480FA9001C7E04AF04E
:011982002242
:101D7900C2A2000000000000000000000000EF13F4
:101D890092A2000000000000000000EFC313FF133F
:101D990092A2000000000000000000EFC313FF132F
:101DA90092A2000000000000000000EFC313FF131F
:101DB90092A2000000000000000000EFC313FF130F
:101DC90092A2000000000000000000EFC313FF13FF
:101DD90092A2000000000000000000EFC313FF13EF
:101DE90092A2000000000000000000EFC31313924C
:101DF900A2000000000000000000000000D2A200C4
:101E09000000000000000000000000E4FF0FEFB434
:021E190029FBA3
:011E1B0022A4
:04284200EFFEEDFFB9
:01284600226F
:10258000AE07EEC4540F540FFE6012EF540FFFE479
:10259000FDEDC39E5007740A2FFF0D80F4EF243029
:0125A000FF3B
:0125A1002217
:08253500122198900084E0FFE0
:10253D00AE07EEC4540F540FFE6012EF540FFFE4BC
:0D254D00FDEDC39E5007740A2FFF0D80F4B2
:01255A00225E
:10245E00E4FEFDEFD39430402674D02FFFE4FCEC65
:10246E00C39F500B0DEDB40A03E4FD0E0C80F0EE8D
:0F247E00C454F054F0FEED540F4EFF90018CF05B
:01248D00222C
:10255B00E4FEFDFCECC39F500B0DEDB40A03E4FD50
:10256B000E0C80F0EEC454F054F0FEED540F4EFF01
:04257B0090018CF04F
:01257F002239
:0224E500AD0741
:1024E700ED7E0054F0FFEEC4F854F0C868FEEFC468
:1024F700540F484430FF121D79AF057E00EF540F8B
:062507004430FF021D79C3
:02250D00AD0718
:10250F00ED7E0054F0FFEEC4F854F0C868FEEFC43F
:10251F00540F484430FF12237EAF057E00EF540F57
:06252F004430FF02237E90
:101F3E00309803021FC57FD41227287F8712242EC4
:101F4E0074FFF07F2F12237E7F8912242E74FFF0F0
:101F5E007F2F12237EF07F3212237EF07F301223EA
:101F6E007E7F8D12242E7F2012237E12237E7F856C
:101F7E00122198900084E0FF9002BEF01224369059
:101F8E00008474FFF07F3A12237E7F831221989093
:101F9E000084E0FF9002BFF012243690008474FF9C
:101FAE00F07F3A12237E7F81122198900084E0FF09
:071FBE009002C0F01224366E
:011FC50022F9
:10229F00C203C2059000C6E09000BFF09000C7E0F7
:1022AF00900097F09000C8E0900159F09000C9E0BD
:1022BF0090015AF09000CAE09000BEF09000D1E07B
:1022CF00FFA3E0FEA3E0FDA3E0FCA3E0FBEF700E95
:0E22DF00EE700BED7008EC7005EB7002D2058E
:0122ED0022CE
:102689009001267402F0E4A3F0A37402F0A374315C
:0E269900F0A37452F0A37461F07F06022701D3
:1026A7009001267402F0E4A3F0A37402F0A374313E
:0E26B700F0A37426F0A37415F07F060227012D
:1026C5009001267402F0E4A3F0A37402F0A374321F
:0E26D500F0A37493F0A374A3F07F0602270114
:10224A00E4FF9001267402F0E4A3F0A37406F0A35D
:10225A007433F0A37493F09001CEE090012BF090C8
:10226A0001CFE090012CF09001D0E090012DF09088
:10227A0001D1E090012EF07E0174262EF582E4341D
:10228A0001F583E06FFF0EEEB409EE90012FEFF037
:05229A007F0A0227018C
:1023CB009001267402F0E4A3F0A37407F0A3743514
:1023DB00F0A37433F0A37456F0A37430F0A37470AD
:1023EB00F0A37434F0A37472F0A37451F07F0B025A
:0223FB002701B8
:1021F100E4FF9001267402F0E4A3F0A37407F0A3B6
:102201007437F0A37460F0A37405F09001CEE090F0
:10221100012CF09001CFE090012DF09001D0E090E1
:10222100012EF09001D1E090012FF07E0174262E55
:10223100F582E43401F583E06FFF0EEEB40AEE900F
:092241000130EFF07F0B022701D0
:1025A2009001267402F0E4A3F0A37403F0A374383C
:1025B200F0A37404F0A37401F0A3743EF07F070249
:0225C2002701EF
:1025C4009001267402F0E4A3F0A37403F0A374381A
:1025D400F0A37405F0A37401F0A3743FF07F070225
:0225E4002701CD
:1025E6009001267402F0E4A3F0A37403F0A37438F8
:1025F600F0A37406F0A37401F0A3743CF07F070205
:022606002701AA
:101E1C00E4FB7F871225359002C2EFF07F891225F3
:101E2C00359002C1EFF07F8D122535A9077F851201
:101E3C002535AA077F831225359001267402F0E41C
:101E4C00A3F0A37413F0A37439F0A37406F0A37475
:101E5C0001F0AE01A3EEF09002C1E090012DF090E4
:101E6C0002C2E090012EF0AE02A3EEF0A3EFF0E47C
:101E7C00A3F0A3F0A3F0A3F0A304F0A3F0E4A3F069
:101E8C00A3F0A3F0A3F0A3F07F0174262FF582E456
:101E9C003401F583E06BFB0FEFB416EE90013CEBD5
:061EAC00F07F1702270180
:10198300E4900244F0A3F07B52FD7FA8121FF2A95A
:1019930007121FED122799AA079000CCEAF07B509B
:1019A300121FEEA907121FED122799AA079000CD67
:1019B300EAF07B54121FEE900240EFF0121FED90FD
:1019C300023FEFF0121FED90023EEFF0900242E46F
:1019D300F0A304F0E4FB743E2BF582E43402F583B8
:1019E300E0540FFF3395E0FE900242E0FCA3E0FDDC
:1019F300121550900245E02FF0900244E03EF09023
:101A03000242E0FEA3E0FF7C007D0A121550900223
:101A130042EEF0A3EFF00BEBB403BB900244E0FE05
:101A2300A3E0FF900037EEF0A3EFF0FA9000CBF0C5
:101A3300900244A3E07804CEA2E713CE13D8F8FFB4
:101A4300900244EEF0A3EFF054F0FA9000CFE0548C
:101A53000FF07B57121FEEEFB43006EA547FFA8083
:0B1A630004EA4480FA9000CFE04AF053
:011A6E002255
:101C0C00E4FF9001267402F0E4A3F0A37413F0A394
:101C1C007439F0A37406F0A37401F09000C6E09040
:101C2C00012CF09000C7E090012DF09000C8E090DE
:101C3C00012EF09000C9E090012FF09000CAE090C6
:101C4C000130F09000CBE0900131F09000CCE090AE
:101C5C000132F09000CDE0900133F09000CEE09096
:101C6C000134F09000CFE0900135F09000D0E0907E
:101C7C000136F09000D1E0900137F09000D2E09066
:101C8C000138F09000D3E0900139F09000D4E0904E
:101C9C00013AF09000D5E090013BF07E0174262EC5
:101CAC00F582E43401F583E06FFF0EEEB416EE908E
:091CBC00013CEFF07F1702270143
:1026E3009001267402F0E4A3F0A37402F0A3742C07
:0E26F300F0A37410F0A3743EF07F06022701DE
:102608009001267402F0E4A3F0A37403F0A3742BE2
:10261800F0A37430F0A304F0A37429F07F07022715
:0126280001B0
:102629009001267402F0E4A3F0A37403F0A3742BC1
:10263900F0A37431F0A314F0A37429F07F070227E3
:01264900018F
:0323FD00A3E0FF5B
:10240000E4FEFDFCEFC394644007749C2FFF0E8034
:10241000F3EFC3940A400774F62FFF0D80F3AC0767
:0E242000ED4430FF1227BEEC4430FF0227BE11
:101CC500D2927F441227BE7F631227BE7F741227EC
:101CD500BE7F6F1227BE7F201227BE7F231227BE2D
:101CE5007B53121FEE1227BE7F201227BE2004272A
:101CF500900037E0FEEEFF7E00122400900037E0F2
:101D0500FE1223FD7F201227BE7F4D1227BE7F695D
:101D15001227BE7F6E801C7B54121FEEAA07122766
:101D2500BE121FEDAA071227BE121FEDAA07122722
:101D3500BE7F251227BE90005DE0D3940A50327F06
:101D4500201227BE7F491227BE7F441227BE7F3A45
:101D55001227BEE4FA90005DE0FFEAC39F501274BB
:101D65005C2AF582E43401F583E0FF1227BE0A8080
:031D7500E4C29233
:011D78002248
:101A6F00D2927F201227BE7F451227BE7F6E12278C
:101A7F00BE7F741227BE7F721227BE7F611227BEF0
:101A8F007F641227BE7F611227BE7F3A1227BE9056
:101A9F0000BFE0FF1224007F2F1227BE900097E0B7
:101AAF00FF1224007F2F1227BE900159E0FF12244E
:101ABF00007F201227BE1223FD7F3A1227BE90000F
:101ACF00BEE0FF1224007F201227BE7F481227BEE0
:101ADF007F611227BE7F731227BE0F1227BE7F6151
:101AEF001227BE7F3A1227BE900085E0FF12240016
:101AFF007F2F1227BE90006FE0FF1224007F2F125E
:101B0F0027BE9000BBE0FF1224007F201227BEA348
:101B1F00A3E0FF1224007F3A1227BE900070A3E0CB
:101B2F00FF1224007F0D1227BE7F0A1227BEC2921A
:011B3F002283
:10248E00E4FEFDFCEFC394644007749C2FFF0E80A6
:10249E00F3EFC3940A400774F62FFF0D80F3AC07D9
:0E24AE00ED4430FF12237EEC4430FF02237E0B
:10117900C209900037E0FEA3E0FF4E70030213DCC2
:101189009000BEE0FD7C00EF2DFFEC3EFE9000706C
:10119900F0A3EFF0C3943CEE940050030213B9900E
:1011A9000070E0FEA3E0FF7D3C121562AD07ED750E
:1011B900F03CA4FFAEF0C3E09FF0900070E09EF019
:1011C900AF0590015AE02FFFE433FE9000BCF0A375
:1011D900EFF0C39418EE940050030213A39000BCDF
:1011E900E0FEA3E0FF7C007D18121562AD07ED75E6
:1011F900F018A4FFAEF0C3E09FF09000BCE09EF0B1
:10120900AF05900159E02F9000BBF0900097E0FFE7
:101219006401601EEF64036019EF64056014EF64F4
:1012290007600FEF6408600AEF640A6005EF640C59
:10123900703C9000BBE0D3941F4024E024E1F0907F
:101249000097E00490006FF0D3940C9000BFE04049
:101259001A04900085F090006F7401F002140E904A
:101269000097E090006FF09000BFE002140A900030
:1012790097E0FF6404600FEF6406600AEF64096099
:1012890005EF640B70239000BBE0D3941E400BE084
:1012990024E2F0900097E0048004900097E0900029
:1012A9006FF09000BFE002140A900097E0640260BA
:1012B9000302140E9000BFE024D0FFE43407AB070B
:1012C900FAC2097C007D04FE1215B790023EEEF0C9
:1012D900A3EFF0F5828E837802C333CE33CED8F9EB
:1012E900FFC3EB9FFFEA9EFE4F7057FC7D0AAF03D9
:1012F900AE021215B790023EEEF0A3EFF08E83F521
:10130900827C007D0A121550C3EB9FFFEA9EFE4FB7
:10131900702E7D28AF03AE021215B790023EEEF093
:10132900A3EFF08E83F5827C007D28121550C3EB64
:101339009FFFEA9EFE4F7004D2098006C20980020F
:10134900D2093009339000BBE0D3941D401B9000B3
:10135900BFE0900085F09000BBE024E3F090009797
:10136900E00490006FF002140E900097E090006F77
:10137900F09000BFE002140A9000BBE0D3941C4037
:101389000BE024E4F0900097E0048004900097E0DB
:1013990090006FF09000BFE08067900159E09000E5
:1013A900BBF0900097E090006FF09000BFE0805193
:1013B90090015AE0FF9000BCE4F0A3EFF0900159CE
:1013C900E09000BBF0900097E090006FF09000BFB4
:1013D900E0802E9000BEE0FF900070E4F0A3EFF0F3
:1013E90090015AE0FF9000BCE4F0A3EFF09001599E
:1013F900E09000BBF0900097E090006FF09000BF84
:10140900E0900085F0121A6F7FC01227289000859E
:10141900E0FF12248E7F2F12237E90006FE0FF12CF
:10142900248E7F2F12237E9000BBE0FF12248E7F33
:101439002012237E12237EA3A3E0FF12248E7F3A7B
:1014490012237E900070A3E0FF12248E7F200223D6
:011459007E14
:10266A00D294C2A1C295C296C297D291D290C2B652
:0F267A00C2B4D2B5D2A6D2A79000BA741CF02277
:10202900C20E30A4FD9002AE12160F00000000C2CD
:102039000E200E4730A4259002AEE0FCA3E0FDA3DC
:10204900E0FEA3E0FFE4FAF9F8EF2401FFEA3EFE1F
:10205900E93DFDE83CFC9002AE121603E47F887E60
:1020690013FDFC9002AEE0F8A3E0F9A3E0FAA3E0C7
:0B207900FBD31215ED40BAD20E80B66A
:012084002239
:10208500C20E30A5FD9002AE12160F00000000C270
:102095000E200E4730A5259002AEE0FCA3E0FDA37F
:1020A500E0FEA3E0FFE4FAF9F8EF2401FFEA3EFEC3
:1020B500E93DFDE83CFC9002AE121603E47F887E04
:1020C50013FDFC9002AEE0F8A3E0F9A3E0FAA3E06B
:0B20D500FBD31215ED40BAD20E80B60E
:0120E00022DD
:1020E100C20E30B7FD9002AE12160F00000000C202
:1020F1000E200E4730B7259002AEE0FCA3E0FDA311
:10210100E0FEA3E0FFE4FAF9F8EF2401FFEA3EFE66
:10211100E93DFDE83CFC9002AE121603E47F887EA7
:1021210013FDFC9002AEE0F8A3E0F9A3E0FAA3E00E
:0B213100FBD31215ED40BAD20E80B6B1
:01213C002280
:1000260090018BE0604B14606424F1B4100040032F
:100036000207C890004775F003A4C58325F0C58361
:100046007302075B0200C30201380201CE020244BA
:100056000202BA0203100204DE0207C80207C8023F
:1000660007C80205D90203F702079702073E0207EF
:1000760014900025E0640160030207CDC2079000DA
:10008600C0F01226A790018B74010206B0900025DD
:10009600E0640160062007030207CDC20790002531
:1000A600740FF0E49000C0F09000C5E0FC700A12F6
:1000B600268990018B7411F022EC0207C890002566
:1000C600E0640160062007030207CDC207E4900042
:1000D600C0F09000C5E0700B1226C590018B74121B
:1000E6000206B07F80122728E4900167F09001672E
:1000F600E02439F582E43400F583E0FF600B122337
:100106007E900167E004F080E47FC0122728E49027
:100116000167F0900167E0244AF582E43400F58334
:10012600E0FF600B12237E900167E004F080E4029A
:1001360005C3900025E0640160062007030207CD91
:10014600C207E49000C0F090005BE0B4092B900079
:10015600C6E09001CEF09000C7E09001CFF090008D
:10016600C8E09001D0F09000C9E09001D1F01222D1
:100176004A90018B74130206B07F80122728E49000
:100186000167F0900167E02439F582E43400F583D5
:10019600E0FF600B12237E900167E004F080E47FAD
:1001A600C0122728E4900167F0900167E0244AF521
:1001B60082E43400F583E0FF600B12237E90016732
:1001C600E004F080E40205C3900025E064016006C7
:1001D6002007030207CDC207E49000C0F090005B41
:1001E600E0B4060B1223CB90018B74140206B07F89
:1001F60080122728E4900167F0900167E02439F522
:1002060082E43400F583E0FF600B12237E900167E1
:10021600E004F080E47FC0122728E4900167F090A4
:100226000167E0244AF582E43400F583E0FF600BC1
:1002360012237E900167E004F080E4020704900038
:1002460025E0640160062007030207CDC207E4909B
:1002560000C0F090005BE0B4050B1221F190018B19
:1002660074150206B07F80122728E4900167F0908B
:100276000167E02439F582E43400F583E0FF600B82
:1002860012237E900167E004F080E47FC0122728E5
:10029600E4900167F0900167E0244AF582E43400B7
:1002A600F583E0FF600B12237E900167E004F08087
:1002B600E40205C3900025E06401600620070302FE
:1002C60007CDC207E49000C0F090005BE0B40511D2
:1002D6009000C5E0700B1225C490018B74160206BF
:1002E600B07FC0122728E4900167F0900167E024F0
:1002F60086F582E43400F583E0FF600B12237E90DE
:100306000167E004F080E40205C3900025E0640183
:1003160060062007030207CDC207E49000C0F090F4
:10032600005BE06415707B9000C6E0FF6402600528
:10033600EF640170449000C7E0B406149000C9E071
:10034600B4010D1225E6C20790018B741C0206B09B
:100356007FC0122728E4900167F0900167E02473BC
:10036600F582E43400F583E0FF600B12237E9001F2
:1003760067E004F080E40207047FC0122728E490B7
:100386000167F0900167E02486F582E43400F58386
:10039600E0FF600B12237E900167E004F080E40228
:1003A60005C37F80122728E4900167F0900167E07B
:1003B6002439F582E43400F583E0FF600B12237ED6
:1003C600900167E004F080E47FC0122728E49001E2
:1003D60067F0900167E0244AF582E43400F583E093
:1003E600FF600B12237E900167E004F080E40207B1
:1003F60004900025E0640160062007030207CDC2D1
:1004060007E49000C0F090005BE06415707B9000FC
:10041600D0E06401704A12229F30051B1219831224
:100426001C0CC20590018B7417F09000257414F013
:100436009000BA741CF0227FC0122728E49001674E
:10044600F0900167E02426F582E43400F583E0FFAE
:10045600600B12237E900167E004F080E40205C37E
:100466007FC0122728E4900167F0900167E0249886
:10047600F582E43400F583E0FF600B12237E9001E1
:1004860067E004F080E40207047F80122728E490E6
:100496000167F0900167E02439F582E43400F583C2
:1004A600E0FF600B12237E900167E004F080E47F9A
:1004B600C0122728E4900167F0900167E0244AF50E
:1004C60082E43400F583E0FF600B12237E9001671F
:1004D600E004F080E4020704900025E06401600671
:1004E6002007030207CDC207E49000C0F090005B2E
:1004F600E06405707C9000C5E070762004267F805D
:10050600122728E4900167F0900167E02402F58243
:10051600E43400F583E0FF604D12237E900167E02E
:1005260004F080E47F80122728E4900167F09001B0
:1005360067E024A9F582E43400F583E0FF600B123E
:10054600237E900167E004F080E47F2012237E7F03
:100556008C1227287F4F12237E7F4B12237E7F200B
:1005660012237E12237E1225A290018B741B020693
:10057600B07F80122728E4900167F0900167E0249D
:1005860039F582E43400F583E0FF600B12237E9098
:100596000167E004F080E47FC0122728E490016739
:1005A600F0900167E0244AF582E43400F583E0FF29
:1005B600600B12237E900167E004F080E41226E3CC
:1005C60090015B7402F090018B741EF0E49000C001
:1005D600020736900025E064016006200703020743
:1005E600CDC207E49000C0F090005BE064156003A4
:1005F6000206B8C203D2959000BA741CF0E49000CB
:100606005DF0FF74C62FF582E43400F583E0FE74D6
:100616005C2FF582E43401F583EEF0745C2FF582ED
:10062600E43401F583E0600890005DE004F08002A8
:100636007F0B0FEFC3940A40CA121CC52004051293
:1006460011798058900037E07004A3E06464702646
:100656007FC0122728E4900167F0900167E0245ECE
:10066600F582E43400F583E0FF603112237E9001C9
:1006760067E004F080E47FC0122728E4900167F069
:10068600900167E0248DF582E43401F583E0FF6094
:100696000B12237E900167E004F080E49000BA74A8
:1006A6001CF012260890018B741FF0900025740F21
:1006B600F0227F80122728E4900167F0900167E01E
:1006C6002439F582E43400F583E0FF600B12237EC3
:1006D600900167E004F080E47FC0122728E49001CF
:1006E60067F0900167E0244AF582E43400F583E080
:1006F600FF600B12237E900167E004F080E412266F
:10070600E390015B7402F090018B741E80229000CE
:1007160025E0640160062007030207CDC207E490C6
:1007260000C0F01226E3E490015BF090018B741098
:10073600F09000257432F022900025E064016003F9
:100746000207CD90018B7410F0E49000C0F0900089
:10075600257405F0229000BA741CF0900025E06420
:100766000170649000C0F0C20790015BE060121453
:10077600F01226E39000257432F090018B741EF07F
:10078600221226A790018B741DF09000257414F098
:1007960022900025E06401702EC2079000C0F09000
:1007A6000025740AF09000C5E0700A1226899001AF
:1007B6008B741DF022D2019000BA7401F012262922
:0707C6008000E490018BF0BC
:0107CD002209
:1007CE0078487C027D017BFF7A1B79407E007F1189
:1007DE0012152A78597C027D017BFF7A1B79517E96
:1007EE00007F1112152A786A7C027D017BFF7A1B2D
:1007FE0079627E007F1112152A787B7C027D017B47
:10080E00FF7A1B79737E007F1112152A788C7C0279
:10081E007D017BFF7A1B79847E007F1112152A7869
:10082E009D7C027D017BFF7A1B79957E007F1112E4
:10083E00152A90024274C8F07B50121FEE90023EB1
:10084E00EFF0121FED90023FEFF0121FED900240FD
:10085E00EFF0121FED900241EFF090023EE0FFC369
:10086E0094304030EFD39439502AA3E0FFC3943034
:10087E004022EFD39439501CA3E0FFC394304014B0
:10088E00EFD39439500EA3E0FFC394304006EFD35C
:10089E009439400C90023E7430F0A3F0A3F0A3F014
:1008AE007B52121FE312237E900242E0FF12272892
:1008BE00900240122376A3E0FF122728E4A3F0D281
:1008CE000920090302095220A516900243E004F004
:1008DE00E0D394014002E4F012271D12208580E13E
:1008EE0020A43E900243E0FE7014900240E004F01B
:1008FE00E0D3943940037430F09002408016EEB489
:10090E000117900241E004F0E0D3943940037430B3
:10091E00F0900241E0FF12237E12271D1220298043
:10092E00A020B79D900241E0B43008900240E064F0
:10093E0030608E900240E0C3943150851220E1C2A7
:10094E00090208CF7F80122728E4900244F090021B
:10095E0044E02448F582E43402F583E0FF600B1294
:10096E00237E900244E004F080E47FC0122728E446
:10097E00900244F0900244E02459F582E43402F5EA
:10098E0083E0FF600B12237E900244E004F080E4CB
:10099E007B57121FEEEF24FF920B200B03300B0B35
:1009AE00300B04C20B8006D20B8002C20BD20A900F
:1009BE000242200B0574C0F0800374C8F09002420E
:1009CE00E0FF122728300A2D20A520A20BB3920B90
:1009DE00900242300B0574C8F0800374C0F0900290
:1009EE0042E0FF12272812208580DA20B7D7122086
:1009FE00E1C20A80D07F80122728E4900244F09052
:100A0E000244E0246AF582E43402F583E0FF600BD1
:100A1E0012237E900244E004F080E4300B03020BBC
:100A2E00427FC0122728E4900244F0900244E02452
:100A3E008CF582E43402F583E0FF600B12237E9086
:100A4E000244E004F080E4D20C7B54121FEE9002BC
:100A5E0045EFF0121FED900246EFF0121FED9002DF
:100A6E0047EFF0900245E0FFC394304022EFD3945D
:100A7E0039501CA3E0FFC394304014EFD394395087
:100A8E000EA3E0FFC394304006EFD39439400A9092
:100A9E0002457430F0A3F0A3F074C2122365E49003
:100AAE000243F090024274C2F0FF122728200C037A
:100ABE00020C9C20A516900243E004F0E0D39402B1
:100ACE004002E4F012271D12208580E120A45A90E6
:100ADE000243E0FE7014900245E004F0E0D3943936
:100AEE0040037430F09002458031EEB40114900250
:100AFE0046E004F0E0D3943940037430F09002469F
:100B0E008019900243E0B40217900247E004F0E02F
:100B1E00D3943940037430F0900247E0FF12237EE5
:100B2E0012271D122029020ABB20B7811220E1C212
:100B3E000C020ABB7FC0122728E4900244F09002F8
:100B4E0044E0247BF582E43402F583E0FF600B126F
:100B5E00237E900244E004F080E47B54121FEE905A
:100B6E000245EFF0121FED900246EFF0121FED90CE
:100B7E000247EFF0900245E0FFC394304022EFD3DE
:100B8E009439501CA3E0FFC394304014EFD3943932
:100B9E00500EA3E0FFC394304006EFD39439400AC1
:100BAE009002457430F0A3F0A3F074C61223659042
:100BBE00024274C6F0FF122728E4A3F0D20D200DD6
:100BCE0003020C9C20A516900243E004F0E0D3949F
:100BDE00024002E4F012271D12208580E120A45A63
:100BEE00900243E0FE7014900245E004F0E0D394CE
:100BFE003140037430F09002458031EEB401149010
:100C0E000246E004F0E0D3943940037430F09002D1
:100C1E00468019900243E0B40217900247E004F0B8
:100C2E00E0D3943940037430F0900247E0FF122372
:100C3E007E12271D122029020BCC20B7811220E133
:100C4E00900245E064317041A3E0B43006A3E06445
:100C5E003060367F80122728E4900244F0900244E0
:100C6E00E0249DF582E43402F583E0FF600B12234D
:100C7E007E900244E004F080E490024274C6F0FFDD
:100C8E00122728E4A3F0020BCCC20D020BCC90026B
:100C9E003EE09002B1F07B501224C21227D890028F
:100CAE003F1224BC1227D89002401224BC1227D81F
:100CBE009002411224BC1227D89002451224BC1275
:100CCE0027D89002461224BC1227D890024712242D
:100CDE00BC1227D89002B1200B0D74301224C09094
:100CEE0000727430F0800E7431F07B571224C29073
:100CFE0000727431F0D29290023E1227B0A3E0FF40
:100D0E001227BE7F201227BE900072E0FF1227BE70
:100D1E007F201227BE9002451227B07F201227BED9
:100D2E00200B0E7F6D1227BE7F691227BE7F6E804D
:100D3E00027F251227BE7F0D1227BE7F0A1227BE05
:020D4E00C2924F
:010D50002280
:10275100C202759850438780438920758840758DE2
:09276100F4758BF4D28ED2AC2287
:100D510078D27C017D017BFF7A1B79A67E007F1111
:100D610012152A78E37C017D017BFF7A1B79B77E1E
:100D7100007F1112152A78F47C017D017BFF7A1B1B
:100D810079C87E007F1112152A78057C027D017BCE
:100D9100FF7A1B79D97E007F1112152A78167C0201
:100DA1007D017BFF7A1B79EA7E007F1112152A787B
:100DB100277C027D017BFF7A1B79FB7E007F11126C
:100DC100152AC2AAC2A812266AC2CFE4F5CDF5CC73
:100DD100D2CAD2AF122751E58954F04401F589C234
:100DE1008DE4F58CF58AD28C12232BC29230B70395
:100DF100020F447F80122728E4900167F090016779
:100E0100E024F4F582E43401F583E0FF600B122362
:100E11007E900167E004F080E490023A12160F0020
:100E2100000000C20820084720B744E47F107E2755
:100E3100FDFC90023AE0F8A3E0F9A3E0FAA3E0FB9D
:100E4100D31215ED4002D20890023AE0FCA3E0FD76
:100E5100A3E0FEA3E0FFE4FAF9F8EF2401FFEA3E84
:100E6100FEE93DFDE83CFC90023A12160380B620F3
:100E71000803020F447FC0122728E4900167F09015
:100E81000167E02405F582E43402F583E0FF600B9D
:100E910012237E900167E004F080E490023A12167A
:100EA1000F00000000C20820B74720084490023A12
:100EB100E0FCA3E0FDA3E0FEA3E0FFE4FAF9F8EF14
:100EC1002401FFEA3EFEE93DFDE83CFC90023A12B6
:100ED1001603E47FFA7EFFFDFC90023AE0F8A3E0FE
:100EE100F9A3E0FAA3E0FBD31215ED40BAD20880D2
:100EF100B620084F7F80122728E4900167F0900107
:100F010067E024D2F582E43401F583E0FF600B123F
:100F1100237E900167E004F080E47FC0122728E47B
:100F2100900167F0900167E024E3F582E43401F574
:100F310083E0FF600B12237E900167E004F080E400
:100F41001207CE7F80122728E4900167F090016795
:100F5100E0247AF582E43401F583E0FF600B12238B
:100F61007E900167E004F080E47FC0122728E490BE
:100F71000167F0900167E02413F582E43400F58302
:100F8100E0FF600B12237E900167E004F080E4E44F
:100F9100900238F0A3F0900238E0FEA3E0FFE4FCF9
:100FA100FD7B507AC3F9F8D31215ED4013122820B6
:100FB100900239E004F070DE900238E004F080D64F
:100FC1007F80122728E4900167F0900167E024A94F
:100FD100F582E43400F583E0FF600B12237E90017B
:100FE10067E004F080E4121FC612237E7FC012273F
:100FF10028E4900167F0900167E02416F582E4345B
:1010010002F583E0FF600B12237E900167E004F09C
:1010110080E47FC81227287B54121FD812237E7FB9
:1010210020121FEA900072EFF01227D8E0B43013BB
:101031007F6D12237E7F6912237E7F6E12237EC213
:101041000480077F2512237ED204D2019000BA7456
:101051001CF025E0F0E490018BF09000C0F09000CE
:1010610025740AF012002630CF72E4F5CDF5CCC21A
:10107100CF900025E0600214F09000BAE060041403
:10108100F080599000BA741CF030A302C2063001FE
:101091004B90018BE0641D6043C2017F80122728C1
:1010A100E4900167F0900167E0247AF582E434016D
:1010B100F583E0FF600B12237E900167E004F0806E
:1010C100E47FC0122728E4900167F07F2012237E7D
:1010D100900167E004F0E0C3941040EF20A3852065
:1010E1000682D20612232B7F80122728E490016703
:1010F100F0900167E024A9F582E43400F583E0FF74
:10110100600B12237E900167E004F080E4121FC699
:1011110012237E7FC0122728E4900167F0900167B7
:10112100E02416F582E43402F583E0FF600B12231C
:101131007E900167E004F080E47FC81227287B5489
:10114100121FD812237E7F20121FEA900072EFF047
:101151001227D8E0B4300E7F6D12237E7F691223EF
:101161007E7F6E80027F2512237ED2019000BA74A9
:081171001CF025E0F0021065FE
:101EBE00020D51E493A3F8E493A34003F68001F2DC
:101ECE0008DFF48029E493A3F85407240CC8C33325
:101EDE00C4540F4420C8834004F456800146F6DFF4
:101EEE00E4800B0102040810204080901640E47E2E
:101EFE00019360BCA3FF543F30E509541FFEE493E9
:101F0E00A360010ECF54C025E060A840B8E493A3AF
:101F1E00FAE493A3F8E493A3C8C582C8CAC583CADA
:101F2E00F0A3C8C582C8CAC583CADFE9DEE780BE92
:01176900007F
:10145A00E709F608DFFA8046E709F208DFFA803E74
:10146A0088828C83E709F0A3DFFA8032E309F60861
:10147A00DFFA8078E309F208DFFA807088828C83C9
:10148A00E309F0A3DFFA806489828A83E0A3F6087D
:10149A00DFFA805889828A83E0A3F208DFFA804C57
:1014AA0080D280FA80C680D4806980F2803380102E
:1014BA0080A680EA809A80A880DA80E280CA803397
:1014CA0089828A83ECFAE493A3C8C582C8CCC5830F
:1014DA00CCF0A3C8C582C8CCC583CCDFE9DEE780DF
:1014EA000D89828A83E493A3F608DFF9ECFAA9F05E
:1014FA00EDFB2289828A83ECFAE0A3C8C582C8CCB4
:10150A00C583CCF0A3C8C582C8CCC583CCDFEADECC
:10151A00E880DB89828A83E493A3F208DFF980CC2E
:10152A0088F0EF60010E4E60C388F0ED2402B40427
:10153A000050B9F582EB2402B4040050AF232345CE
:06154A0082239014AA7335
:10155000EF8DF0A4A8F0CF8CF0A428CE8DF0A42EAF
:02156000FE2269
:10156200BC000BBE0029EF8DF084FFADF022E4CC6D
:10157200F875F008EF2FFFEE33FEEC33FCEE9DEC36
:10158200984005FCEE9DFE0FD5F0E9E4CEFD22ED7C
:10159200F8F5F0EE8420D21CFEADF075F008EF2FC6
:1015A200FFED33FD4007985006D5F0F222C398FDB7
:0515B2000FD5F0EA2254
:1015B700C2D5EC30E709B2D5E4C39DFDE49CFCEE4F
:1015C70030E715B2D5E4C39FFFE49EFE121562C350
:1015D700E49DFDE49CFC800312156230D507C3E44B
:0615E7009FFFE49EFE22BE
:1015ED00EB9FF5F0EA9E42F0E99D42F0EC6480C875
:0615FD0064809845F02215
:0C160300ECF0A3EDF0A3EEF0A3EFF0225A
:10160F00A8828583F0D083D0821216261216261256
:10161F001626121626E473E493A3C583C5F0C5837B
:10162F00C8C582C8F0A3C583C5F0C583C8C582C825
:01163F002288
:00000001FF
